:100000000C942A000C9447000C9447000C94470071
:100010000C9447000C9447000C9447000C94470044
:100020000C9447000C9447000C9447000C94470034
:100030000C9447000C9447000C9447000C94470024
:100040000C9447000C9447000C9447000C94470014
:100050000C94470011241FBECFE5D8E0DEBFCDBF12
:1000600010E0A0E6B0E0E4E3FCE002C005900D92F1
:10007000AE3FB107D9F711E0AEEFB0E001C01D927D
:10008000A830B107E1F70E9404020C9418060C9402
:10009000000080E487B987E886B908953699FECFD5
:1000A00087B1887F836087B9369A3699FECF24B1AD
:1000B00035B1822F932F0895A0980895A19808959F
:1000C00023B330E021703070822F932F089523B333
:1000D00030E022703070822F932F089587B3807F95
:1000E00087BB969A939800C000C0C49A00C000C015
:1000F00086B38295807F00C000C0C49892E09A9534
:10010000F1F700C0C49A00C000C096B300C000C0A0
:10011000C49892E09A95F1F700C0882334F396983A
:1001200087B38F6087BB0895282F22952F708F701B
:10013000662311F4939801C0939A00C000C0C49A3A
:1001400098B3907F922B98BB92E09A95F1F700C0FC
:10015000C49892E09A95F1F700C0C49A98B3907F42
:10016000892B88BB82E08A95F1F700C0C49892E0A1
:100170009A95F1F700C00E946E0008950F931F93A7
:10018000CF93DF93082F8FEF90E7A2E0815090404C
:10019000A040E1F700C0000088B3807F88BBC4980E
:1001A0009698939887B38F6087BBBC9A8B9A8E9AE8
:1001B00000C00000C49AC19A92E09A95F1F700C07D
:1001C000C498A2E0AA95F1F700C087E592E00197F4
:1001D000F1F700C0000088E260E00E949400802FE8
:1001E000886060E00E949400802F8C6060E00E9434
:1001F000940080E460E00E949400C0E6D0E000EA51
:1002000010E0899161E00E949400C017D107C9F7FE
:1002100081E060E00E949400DF91CF911F910F91E7
:100220000895CF93DF93EC0188818823D9F085323C
:1002300091F4219688818053883020F461E00E94F7
:1002400094000CC085E261E00E949400888161E026
:100250000E94940003C061E00E949400219688816E
:10026000882329F7DF91CF9108951F93CF93DF93D0
:10027000EC01FC0184918823F1F08532A1F42196F0
:10028000FE011491812F8053883020F461E00E9498
:1002900094000CC085E261E00E949400812F61E02F
:1002A0000E94940003C061E00E9494002196FE0128
:1002B0008491882311F7DF91CF911F910895EF92D8
:1002C000FF920F931F93DF93CF9300D000D00F9234
:1002D000CDB7DEB78C01E62EFE01319685E0DF0159
:1002E0001D928A95E9F7112344F48DE261E00E94A2
:1002F0009400109501951F4F04C080E261E00E94B8
:1003000094000115110571F0FE0136962AE030E0E7
:10031000C801B9010E94E8028293062F172F011528
:100320001105B1F7BE2DBF3FB1F48981882349F093
:1003300000E010E07E010894E11CF11CE00EF11ECB
:1003400015C0FE01329600E010E00F5F1F4F819153
:100350008823D9F307C0FF24E7FCF09405E010E000
:100360000E191F09053011052CF30CC0F7018191FE
:100370007F01805D61E00E9494000F5F1F4F053098
:100380001105A4F30F900F900F900F900F90CF9145
:10039000DF911F910F91FF90EF900895843178F4D1
:1003A000623031F0633031F0613029F4806403C091
:1003B0008C5E01C08C5A806860E00E9494000895B1
:1003C0000E94490008950E944E002EE731E0A901E5
:1003D000481B590BCA0163E070E00E94E802609379
:1003E000FE007093FF00862F972F08959C012F5ECB
:1003F0003E4F822F932F08959C01205F3F4F220F85
:10040000331F822F932F08958F929F92AF92BF92A6
:10041000CF92DF92EF92FF920F931F93CF93DF93D0
:100420000E945C000E945E000E94E0010E94DD02CA
:1004300083E00E94BE0081E060E00E9494000F2EE5
:10044000FCEBEF2EF0E0FF2EF02D0F2EF4ECCF2E74
:10045000F0E0DF2EF02D0F2EF0EAAF2EF0E0BF2EF1
:10046000F02D0F2EFCEA8F2EF0E09F2EF02DC0ED28
:10047000D0E009ED10E08FEF99E6A8E181509040BF
:10048000A040E1F700C000000E946000009709F45E
:1004900052C00E946700009749F181E060E00E942D
:1004A0009400C5010E94110181E061E00E94CE012B
:1004B0000E94E3010E94FC0163E00E945F010E9430
:1004C000E3010E94FC0100D000D0ADB7BEB7129688
:1004D0009C928E92119714969C938E9313970E94E0
:1004E00045030F900F900F900F90C5CF81E060E013
:1004F0000E949400C7010E94110181E061E00E9406
:10050000CE010E94E3010E94F60163E00E945F01B8
:100510000E94E3010E94F60100D000D0EDB7FEB7C3
:10052000D282C182948383830E9445030F900F90EF
:100530000F900F90A0CF81E060E00E949400CE0168
:100540000E94110181E061E00E94CE010E94E3015E
:1005500063E00E945F010E94E30100D000D0ADB7CC
:10056000BEB712961C930E93119714969C938E937C
:1005700013970E9445030F900F900F900F907BCF21
:100580001F93182F873069F42091060130910701DD
:1005900087EE90E061E070E047E050E00E940F03DA
:1005A00008C08A3019F48DE00E94C0025D9BFECF26
:1005B0001CB980E090E01F91089583E389B988E138
:1005C0008AB98FEE90E0909305018093040108951D
:1005D00097FB092E07260AD077FD04D00CD006D051
:1005E00000201AF4709561957F4F0895F6F7909565
:1005F00081959F4F0895AA1BBB1B51E107C0AA1FFD
:10060000BB1FA617B70710F0A61BB70B881F991FB3
:100610005A95A9F780959095BC01CD010895A0E069
:10062000B0E0E5E1F3E00C94E7054B015A01690104
:10063000D90113962C91139721FF1FC0C0E0D0E081
:1006400014C0D6011896ED91FC911997D8018D919F
:100650008D01B6010995009791F40894E11CF11CF5
:10066000C801E814F90468F32196CA15DB0538F4CB
:10067000082F192FEE24FF24F3CFC0E0D0E0CE01E5
:10068000CDB7DEB7ECE00C940306A0E0B0E0EBE4FD
:10069000F3E00C94F105FE01359661917191809122
:1006A000040190910501AF010E945A032096E2E0F7
:1006B0000C940D06ACE0B0E0E0E6F3E00C94E1054C
:1006C0006C011B018A01FC0117821682838181FF64
:1006D000D1C12E010894411C511CF6019381F101F6
:1006E00093FD859193FF81911F01882309F4BEC179
:1006F000853239F493FD859193FF81911F018532F5
:1007000029F490E0B6010E945705E7CFEE24FF24BC
:1007100020E02032B0F48B3269F08C3228F4803241
:1007200051F0833271F40BC08D3239F0803349F4CB
:1007300021602CC02260246029C0286027C020616D
:1007400025C027FD2CC0382F30533A3098F426FFAF
:1007500008C08E2D880FE82EEE0CEE0CE80EE30E8E
:1007600015C08F2D880FF82EFF0CFF0CF80EF30E1E
:1007700020620CC08E3221F426FD78C1206406C0B0
:100780008C3611F4206802C0883649F4F10193FDDB
:10079000859193FF81911F01882309F0BACF982F8B
:1007A0009554933018F09052933028F40C5F1F4FFB
:1007B000FFE3F9830DC0833631F0833771F0833561
:1007C00009F060C022C0F801808189830E5F1F4F4D
:1007D000420171E0A72EB12C16C062E0662E712C8A
:1007E000600E711EF8018080918026FF03C06E2D7F
:1007F00070E002C06FEF7FEFC4012C870E944C05B0
:100800005C0183012C852F7717C052E0652E712C77
:10081000600E711EF8018080918026FF03C06E2D4E
:1008200070E002C06FEF7FEFC4012C870E9441058A
:100830005C012C852068830123FD20C008C080E274
:1008400090E0B6012C870E945705FA942C858F2DD5
:1008500090E0A816B90698F311C0F40127FD859120
:1008600027FF81914F0190E0B6012C870E94570528
:100870002C85F110FA940894A108B108A114B104D0
:1008800061F7F1C0843611F0893649F527FF08C0B9
:10089000F80160817181828193810C5F1F4F09C0D3
:1008A000F80160817181882777FD8095982F0E5F10
:1008B0001F4F4FE6B42EB22297FF09C09095809546
:1008C000709561957F4F8F4F9F4FF0E8BF2AA2012F
:1008D0002AE030E00E948305782E741845C08537E1
:1008E00031F43FEEB32EB2222AE030E025C099EF7A
:1008F000B92EB2228F36C1F0803720F4883509F046
:10090000B5C00DC0803721F0883709F0AFC002C0F4
:1009100020E1B22AB4FE0BC084E0B82A08C0B4FEBD
:1009200009C0E6E0BE2A06C028E030E005C020E1AC
:1009300030E002C020E132E0B7FE08C0F80160817B
:100940007181828193810C5F1F4F07C0F801608124
:10095000718180E090E00E5F1F4FA2010E9483052D
:10096000782E7418FFE7BF22B6FE0BC02EEFB2221E
:100970007E1438F4B4FE07C0B2FC05C08FEEB82276
:1009800002C0A72C01C0AE2C8B2D90E0B4FE0DC090
:10099000FE01E70DF11D2081203319F4E9EEBE229E
:1009A00009C0A394B2FE06C004C086789070009778
:1009B00009F0A3948B2C9924B3FC14C0B0FE0FC093
:1009C000AF1428F4E72CEF0CEA18AF2C08C0E72C82
:1009D00006C080E290E0B6010E945705A394AF14D0
:1009E000C0F304C0AF1410F4FA1801C0FF2484FE51
:1009F0000FC080E390E0B6010E94570582FE1FC041
:100A000081FE03C088E590E010C088E790E00DC04B
:100A1000C40186789070009791F081FC02C080E25A
:100A200001C08BE2B7FC8DE290E0B6010E94570551
:100A300006C080E390E0B6010E945705EA947E1458
:100A4000C0F37A94F201E70DF11D808190E0B601C8
:100A50000E9457057720A9F706C080E290E0B60112
:100A60000E945705FA94FF20C1F737CEF601268180
:100A7000378102C02FEF3FEFC9012C96E2E10C94C1
:100A8000FD05FC010590615070400110D8F780957C
:100A900090958E0F9F1F0895FC016150704001904A
:100AA0000110D8F7809590958E0F9F1F08950F9392
:100AB0001F93CF93DF938C01EB018B8181FF1BC0D0
:100AC00082FF0DC02E813F818C819D8128173907BF
:100AD00064F4E881F9810193F983E88306C0E8852D
:100AE000F985802F0995009731F48E819F810196B9
:100AF0009F838E8302C00FEF1FEFC801DF91CF915C
:100B00001F910F910895FA01AA27283051F1203141
:100B100081F1E8946F936E7F6E5F7F4F8F4F9F4F91
:100B2000AF4FB1E03ED0B4E03CD0670F781F891FD3
:100B30009A1FA11D680F791F8A1F911DA11D6A0FA1
:100B4000711D811D911DA11D20D009F468943F9154
:100B50002AE0269F11243019305D3193DEF6CF0153
:100B60000895462F4770405D4193B3E00FD0C9F719
:100B7000F6CF462F4F70405D4A3318F0495D31FD86
:100B80004052419302D0A9F7EACFB4E0A6959795D9
:100B9000879577956795BA95C9F7009761057105AF
:100BA00008959B01AC010A2E0694579547953795F9
:100BB0002795BA95C9F7620F731F841F951FA01D53
:100BC00008952F923F924F925F926F927F928F92F1
:100BD0009F92AF92BF92CF92DF92EF92FF920F93CC
:100BE0001F93CF93DF93CDB7DEB7CA1BDB0B0FB6D6
:100BF000F894DEBF0FBECDBF09942A883988488893
:100C00005F846E847D848C849B84AA84B984C88428
:100C1000DF80EE80FD800C811B81AA81B981CE0F1F
:100C2000D11D0FB6F894DEBF0FBECDBFED01089504
:040C3000F894FFCF66
:100C34000000040E0400000000040E1F0E04000057
:100C4400040404041F0E04000A15110A0400000021
:100C54000A1F1F0E040000000C12120C00000000FA
:100C6400040E1F0404040400010214080000000020
:100C740046616872656E686569743A0046616872B7
:100C8400656E686569743A2025640A004B656C7664
:100C9400696E3A004B656C76696E3A2025640A00E9
:100CA40043656C736975733A0043656C7369757356
:100CB400203A2025640A002A72696E672A0A000015
:0E0CC40000000200000000C00200000000005E
:00000001FF
