:100000000C942A000C9447000C9447000C94470071
:100010000C9447000C9447000C9447000C94470044
:100020000C9447000C9447000C9447000C94470034
:100030000C9447000C9447000C9447000C94470024
:100040000C9447000C9447000C9447000C94470014
:100050000C94470011241FBECFE5D8E0DEBFCDBF12
:1000600010E0A0E6B0E0E6E0F2E002C005900D92FC
:10007000A637B107D9F710E0A6E7B0E001C01D929E
:10008000AC37B107E1F70E9458000C9401010C94C1
:100090000000A598089523B330E020723070822FBD
:1000A000932F0895D09A0895D89A0895D8980895CE
:1000B0000E9449000E94520080EF90E00197F1F702
:1000C0000E944B00009719F00E945400F5CF0E9447
:1000D0005600F2CF1F93182F873069F420917A00D1
:1000E00030917B0080E690E061E070E047E050E016
:1000F0000E94940008C08A3019F48DE00E946A00C2
:100100005D9BFECF1CB980E090E01F91089582E0D6
:100110008BB98FEF89B988E18AB988E690E090932E
:100120007900809378000895A0E0B0E0EAE9F0E07B
:100130000C94D0004B015A016901D90113962C91FE
:10014000139721FF1FC0C0E0D0E014C0D60118965D
:10015000ED91FC911997D8018D918D01B60109950A
:10016000009791F40894E11CF11CC801E814F9040B
:1001700068F32196CA15DB0538F4082F192FEE24F1
:10018000FF24F3CFC0E0D0E0CE01CDB7DEB7ECE086
:100190000C94EC002F923F924F925F926F927F925D
:1001A0008F929F92AF92BF92CF92DF92EF92FF9287
:1001B0000F931F93CF93DF93CDB7DEB7CA1BDB0B33
:1001C0000FB6F894DEBF0FBECDBF09942A883988D8
:1001D00048885F846E847D848C849B84AA84B984DF
:1001E000C884DF80EE80FD800C811B81AA81B981EB
:1001F000CE0FD11D0FB6F894DEBF0FBECDBFED01FF
:060200000895F894FFCF01
:100206002A72696E672A0A000000000200000000D8
:060216006A000000000078
:00000001FF
